:020000040800F2
:10000000B007002089010008791A0008E3170008EA
:10001000611A00088F020008A91F000800000000F4
:100020000000000000000000000000007D1A000831
:1000300091020008000000007B1A00087F1A0008E7
:10004000A3010008A3010008A3010008A301000800
:10005000A3010008A3010008A3010008A3010008F0
:10006000A3010008A3010008A3010008A3010008E0
:10007000A3010008A3010008A3010008A3010008D0
:10008000A3010008A3010008A3010008A3010008C0
:10009000A3010008A3010008A3010008A3010008B0
:1000A000A3010008A3010008A3010008E51A000845
:1000B000A3010008A3010008A3010008A301000890
:1000C000A3010008A3010008A3010008A301000880
:1000D000A30100089D1F0008A3010008A301000858
:1000E000A3010008A3010008A301000800F002F822
:1000F00000F03AF80AA090E8000C82448344AAF188
:100100000107DA4501D100F02FF8AFF2090EBAE885
:100110000F0013F0010F18BFFB1A43F0010318473B
:10012000B8210000D8210000103A24BF78C878C157
:10013000FAD8520724BF30C830C144BF04680C60ED
:10014000704700000023002400250026103A28BF35
:1001500078C1FBD8520728BF30C148BF0B60704739
:100160001FB51FBD10B510BD00F058F81146FFF7C0
:10017000F7FF01F02BFF00F076F803B4FFF7F2FF72
:1001800003BC00F07DF8000009488047094800479B
:10019000FEE7FEE7FEE7FEE7FEE7FEE7FEE7FEE737
:1001A000FEE7FEE704480549054A064B7047000094
:1001B000E11A0008ED000008B0010020B00700209F
:1001C000B0030020B00300204FF0000200B513463A
:1001D00094469646203922BFA0E80C50A0E80C5067
:1001E000B1F12001BFF4F7AF090728BFA0E80C5018
:1001F00048BF0CC05DF804EB890028BF40F8042B11
:1002000008BF704748BF20F8022B11F0804F18BF7D
:1002100000F8012B7047704770477047754600F033
:100220002BF8AE4605006946534620F00700854688
:1002300018B020B5FFF7B6FFBDE820404FF000062C
:100240004FF000074FF000084FF0000B21F00701BE
:10025000AC46ACE8C009ACE8C009ACE8C009ACE801
:10026000C0098D46704710B50446AFF300802046A4
:10027000BDE81040FFF781BF004870474C010020E7
:1002800001491820ABBEFEE7260002007047FEE7DA
:10029000704710B590F821100022022905D00421E2
:1002A000816380F82020012010BD01680B6823F0D5
:1002B0000E030B6001680B6823F001030B6090F8DC
:1002C0004030C46B012101FA03F3636080F8211010
:1002D00080F82020104610BD10B590F821100024A1
:1002E000022903D00421816301243DE001680A68EA
:1002F00022F00E020A6001680A6822F001020A6018
:100300001A4A0168914201D1012121E0174A1432B1
:10031000914201D110211BE0144A2832914201D1AF
:10032000891515E0114A3C32914201D189140FE040
:100330000E4A5032914202D14FF4803108E00B4A0C
:100340006432914202D14FF4801101E04FF080718C
:10035000064A083A5160012180F82110002180F8F6
:100360002010416B01B18847204610BD08000240B3
:100370002DE9F84FDFF8B891002409F1040A0AF1D9
:10038000040B23460F270BF1040EC9E00125A540FD
:100390002A40AA427DD1674ED1F804C0ACEB0608D2
:1003A000B44532D014DCBCF1030F3AD009DCBCF107
:1003B000000F2AD0BCF1010F1CD0BCF1020F31D1CB
:1003C0001DE0BCF1110F17D0BCF1120F2AD119E0BA
:1003D000B8F5881F19D006DCB8F5803F15D0B8F500
:1003E000801F1FD111E0B8F5001F0ED0B8F5041F13
:1003F00018D10AE0CB6815E0CB681B1D12E0CB6872
:1004000008330FE0CB680C330CE08B682BB1012B69
:100410004FF0080303D0456104E0042302E00561C6
:1004200000E00023FF2A01D8064601E000F104069F
:100430004FEA840501D9A5F12005D6F8008007FA16
:1004400005FC28EA0C0803FA05F548EA0508C6F891
:1004500000804D68ED0062D5374DAE6946F001066B
:10046000AE61AD6924F0030605F001050095334D3A
:1004700006EB050CDCF80850A607360F07FA06F85D
:1004800025EA0805DFF8B880404503D14FF00008A1
:1004900017E044E0DFF8AC80404502D14FF001089E
:1004A0000FE0DFF8A480404502D14FF0020808E0D9
:1004B000DFF89880404502D14FF0030801E04FF08B
:1004C000040808FA06F848EA0508CCF808804D68E0
:1004D000D9F80060ED034D4601D5164300E0964380
:1004E0002E604D68DAF80060AD03554601D516431D
:1004F00000E096432E604D68DBF80060ED025D463B
:1005000001D5164300E096432E604D68DEF800608A
:10051000AD02754601D5164300E096432E60641C7B
:100520000D682A46E5407FF431AFBDE8F88F000042
:1005300000040140000011100010024000000140C2
:1005400000080140000C014000100140001401406F
:100550000AB1016170470904FBE7000001488068A7
:100560007047000020000020024881680278114492
:100570008160704720000020074810B5016841F0F5
:1005800010010160032000F075F80F2000F006F85C
:1005900000F024F8002010BD0020024070B50D4D81
:1005A00004464FF47A712878B1FBF0F00A490968E3
:1005B000B1FBF0F000F0ECFA48B9102C07D20022A1
:1005C0002146501E00F036F800206C6070BD0120FE
:1005D00070BD0000200000202C0000200C4808B551
:1005E000816941F001018161816901F0010100919E
:1005F000C16941F08051C161C06900F08050009034
:100600000448416821F0E06141F00071416008BD9B
:100610000010024000000140002809DB00F01F022A
:10062000012191404009800000F1E020C0F8001154
:1006300070470000F0B40E4B1B680C46C3F3022356
:10064000C3F10705042D00D90425191D072901D27E
:10065000002300E0DB1E012606FA05F1491E2140B9
:1006600099409E40761E16403143F0BC01F09DBC7F
:100670000CED00E0064900F0070208684FF6FF03A2
:10068000184040EA0220034A104308607047000007
:100690000CED00E00000FA052DE9F0470F460500DB
:1006A00061D0434E306800F00700B84209D230688C
:1006B00020F0070038433060306800F00700B8428F
:1006C00051D128683B4C810712D5400703D560689B
:1006D00040F4E06060602878000703D5606840F46B
:1006E000605060606068A96820F0F00008436060B6
:1006F0002878C00728D06868012810D0216802280F
:1007000010D0890700292EDA616821F00301014326
:100710006160FFF723FF804641F288390DE02168D0
:100720008903EFE78901EDE7FFF718FFA0EB080168
:10073000494502D90320BDE8F0876068696800F088
:100740000C00B0EB810FEFD1306800F00700B84229
:100750000BD9306820F0070038433060306800F073
:100760000700B84201D00120E5E72878400705D509
:100770006068E96820F4E06008436060287800075A
:1007800006D56068296920F4605040EAC1006060C5
:1007900000F038F86168084AC1F30311515CC840A1
:1007A0000649086006480068FFF7F8FE0020C2E727
:1007B0000020024000100240C02200082C0000204F
:1007C000240000200448054900684968044AC1F330
:1007D0000221515CC84070472C00002000100240EC
:1007E000D02200080448054900684968044AC1F35A
:1007F000C221515CC84070472C000020001002400C
:10080000D022000812A185B00FC98DE80F0014A0F6
:10081000144A006804905168134801F00C03042B3B
:1008200010D0082B0ED1C1F38343C9031DF8030078
:100830000AD5516804AAC1F34041515C0A4A5043A9
:10084000B0FBF1F005B0704708494843FAE70000F3
:1008500002030405060708090A0B0C0D0E0F101001
:10086000010200000010024000127A0000093D0061
:100870002DE9F84F040070D02078C04DC00749D052
:100880006868C0F38100012807D06868C0F3810060
:10089000022809D16868C00306D52868800339D5C5
:1008A00060680028E7D035E06068B0F5803F0BD085
:1008B00010B1B0F5A02F11D0286820F48030286046
:1008C000286820F4802002E0286840F48030286006
:1008D000606890B1FFF742FE06460AE0286840F4DF
:1008E00080202860F0E700BFFFF738FE801B6428F7
:1008F00073D828688003F7D50CE0FFF72FFE064673
:1009000005E000BFFFF72AFE801B6428F0D82868A6
:100910008003F7D420789A4E80074FF001094FF0FA
:10092000000839D5686810F00C0F07D06868C0F36C
:100930008100022809D16868C00306D428688007AE
:1009400014D52069012808D110E02069B0B1C6F89B
:100950000090FFF703FE074605E00AE1FFF7FEFD02
:10096000C01B0228C4D828688007F7D528686169A9
:1009700020F0F80040EAC10028600DE0C6F80080D1
:10098000FFF7ECFD074604E0FFF7E8FDC01B022877
:1009900023D828688007F7D4207800072CD5794819
:1009A000A169D9B1C0F80090FFF7D8FD074604E06F
:1009B000FFF7D4FDC01B02280FD8686A8007F7D55F
:1009C00071484FF4FA510068B0FBF1F0009000BF9D
:1009D0000098411E0091FAD20EE080E0C0F800803D
:1009E000FFF7BCFD074604E0FFF7B8FDC01B022877
:1009F00075D8686A8007F7D42078400760D5E86921
:100A00000027C00008D4E86940F08050E861E86938
:100A1000012700F0805000905C480168C90513D49C
:100A20000168834641F480710160FFF797FD8246BB
:100A300006E000BFFFF792FDA0EB0A0064284ED845
:100A4000DBF80000C005F5D5E06801280AD008B140
:100A5000052813D0286A20F001002862286A20F0B7
:100A6000040002E0286A40F001002862E06841F2D8
:100A7000883B98B1FFF772FD82460BE0286A40F090
:100A800004002862EEE700BFFFF768FDA0EB0A0153
:100A900059455AD8286A8007F6D50CE0FFF75EFD65
:100AA000824605E0FFF75AFDA0EB0A0159454CD8F4
:100AB000286A8007F6D41FB1E86920F08050E86109
:100AC000E06988B36968C1F38101022944D0022832
:100AD000C6F8608004D0FFF741FD044638E034E0FA
:100AE000FFF73CFD074604E0FFF738FDC01B022876
:100AF0002BD828688001F7D4206AB0F5803F05D153
:100B00006868A16820F4003008436860D4E90801EF
:100B10000843696821F4741108436860C6F860905E
:100B2000FFF71CFD044606E025E000BFFFF716FDB9
:100B3000001B022809D828688001F7D51BE000BFF8
:100B4000FFF70CFD001B022802D90320BDE8F88F37
:100B500028688001F4D40EE00128F7D06868226A82
:100B600000F48031914204D1616A00F4701088422F
:100B700001D00120EAE70020E8E700000010024071
:100B800000004242800442422C00002000700040DD
:100B900010B5401EB0F1807F01D3012010BD4FF091
:100BA000E02460610F21601701F0FFF90020A061CF
:100BB00007202061002010BD7047704770B590F885
:100BC0003C20012A26D0012480F83C40022280F8F3
:100BD0003D2003685A689D6822F070060A68324317
:100BE0005A600D4B02689A4208D0B2F1804F05D08E
:100BF0000A4B9A4202D00A4B9A4204D1496825F026
:100C000080031943916080F83D40002180F83C103A
:100C1000084670BD022070BD002C01400004004059
:100C20000008004010B5040003D094F83D0010B156
:100C300007E0012010BD002084F83C00204600F0B1
:100C40001FF8022084F83D00211D206800F050FFAD
:100C5000012084F8460084F83E0084F83F0084F8C0
:100C6000400084F8410084F8420084F8430084F88E
:100C7000440084F8450084F83D00002010BD0000C9
:100C800008B501680B48B1F1804F0BD00A4A914278
:100C900007D1C16941F00201C161C06900F00200E1
:100CA000009008BDC16941F00101C161C06900F057
:100CB0000100F5E7001002400004004070B5044652
:100CC00090F83C00012817D0012584F83C50022000
:100CD00084F83D002068826822F0770222F47F4287
:100CE00082600868502830D00DDC20284DD005DC0B
:100CF00098B310283BD148E0022070BD302844D082
:100D0000402834D139E0602828D0702806D0B0F5CA
:100D1000805F2CD0B0F5005F29D10AE0CB68D1E923
:100D20000121206800F027FF2068816841F07701E9
:100D300009E0CB68D1E90121206800F01CFF2068A0
:100D4000816841F48041816011E0CA684968206887
:100D500000F0C6FF5021206807E016E0CA68496825
:100D6000206800F0FBFF6021206800F00EFF84F88F
:100D70003D50002084F83C0070BDCA684968206876
:100D800000F0AEFF40212068EFE7226801461046E0
:100D9000EBE7000070B50546007F012824D1244C04
:100DA000207A78B101281FD10021284600F069FB84
:100DB0002061296800264E62E168884215D9A0EBBF
:100DC00001001AE04FF00001284600F05AFBE060F5
:100DD000012020722868016A21F00A010162286856
:100DE000016A41F00201016270BD01D3606905E052
:100DF000A0EB01004FF6FF710844606101F04FF96C
:100E00000C4A0D4B01F05EF901F01CF920702672BE
:100E10002868016A21F00A0101622868016A0162FA
:100E200006480068C16821F00201C16070BD000081
:100E3000000000209CC420B07268913F3000002068
:100E40002DE9F041054690F83C000C46012836D0CB
:100E5000012085F83C008AB3042A42D02868082A79
:100E600051D0D4E90023E168066A26F48056066270
:100E7000C669076A26F4407646EA03234FF6FF76F2
:100E800006EA013123F4704319434FF4005627F466
:100E9000005306EA02321A43C16102622868C1693E
:100EA00021F44061C1612868C169A26841EA022158
:100EB000C161002085F83C00BDE8F08101E002201E
:100EC000FAE7D4E90012E368286800F01BFF2868FD
:100ED000816921F00C01816128688169A268114350
:100EE0000FE0D4E90012E368286800F049FF2868A1
:100EF000816921F44061816128688169A26841EAC1
:100F000002218161D5E7D4E90027267B016A21F41B
:100F100080710162C169036A21F00301394321F044
:100F2000F00731074FF4007647EA116123F40073AC
:100F300006EA02221A43C16102622868C16921F0EF
:100F40000C01C1612868C169A2681143B0E710B5FE
:100F5000040003D094F83D0010B107E0012010BD5B
:100F6000002084F83C00204600F01EF8022084F89F
:100F70003D00211D206800F0BBFD012084F84600E3
:100F800084F83E0084F83F0084F8400084F8410073
:100F900084F8420084F8430084F8440084F8450053
:100FA00084F83D00002010BD00B585B000210091FF
:100FB0000191029103910068124988421FD11248A1
:100FC000816941F400618161816901F400610491EA
:100FD000816941F0040181618069694600F0040083
:100FE00004904FF4807000900848FFF7C1F9002288
:100FF00011461B20FFF71EFB1B20FFF70DFB05B062
:1010000000BD0000002C014000100240000801401B
:1010100010B5044651B104290DD0082910D094F818
:10102000410094F84520012811D10EE094F83E00CB
:1010300094F84220F7E794F83F0094F84320F2E751
:1010400094F8400094F84420EDE7012A01D00120F3
:1010500010BD022051B1042911D0082918D084F8FC
:10106000410084F845000C291BD136E084F83E008D
:1010700084F842002068C26842F0020210E084F85E
:101080003F0084F843002068C26842F0040207E091
:1010900084F8400084F844002068C26842F00802E6
:1010A000C2600122206800F059FD0E492068884284
:1010B00008D0B0F1804F05D00B49884202D00B49CF
:1010C000884204D1816801F00701062903D0016834
:1010D00041F001010160002010BD2068C26842F0AB
:1010E0001002DDE7002C0140000400400008004031
:1010F00070B50446006801694FF00005C9438907CF
:1011000015D4C168C943890711D4E91E01610120C2
:101110002077206880698007204602D0FFF73AFEDA
:1011200004E000F0CBF8204600F05AF9257720685B
:101130000169C943490717D4C168C943490713D492
:101140006FF004010161022020772068806910F4AB
:10115000407F204602D0FFF71DFE04E000F0AEF80D
:10116000204600F03DF9257720680169C943090749
:1011700016D4C168C943090712D46FF00801016190
:10118000042020772068C0698007204602D0FFF73E
:1011900001FE04E000F092F8204600F021F92577E6
:1011A00020680169C943C90617D4C168C943C90683
:1011B00013D46FF010010161082020772068C06906
:1011C00010F4407F204602D0FFF7E4FD04E000F079
:1011D00075F8204600F004F9257720680169C943B5
:1011E000C90708D1C168C943C90704D1891E016173
:1011F000204600F045F920680169C943090609D471
:10120000C168C943090605D46FF080010161204619
:10121000FFF7D2FC20680169C943490609D4C168B7
:10122000C943490605D46FF040010161204600F032
:101230003DF920680169C94389060BD4C168C943D7
:10124000890607D46FF0200101612046BDE8704097
:10125000FFF7B3BC70BD000010B586B0002100914F
:101260000191029103910368114902221148B3F1DF
:10127000804F13D0104CA3420ED18B6943F004036E
:101280008B61896901F004010491C021CDE900124C
:1012900069460392FFF76CF806B010BD8B6943F006
:1012A00004038B61896901F0040104910121EDE7D8
:1012B000001002400008014000040040704770B573
:1012C000044690F83C000D4601280AD0012084F81D
:1012D0003C0042B1042A18D0082A2AD00C2A4DD149
:1012E00039E0022070BD206800F058FC2068816958
:1012F00041F0080181612068816921F00401816168
:10130000206881692A69114311E0206800F06EFCB1
:101310002068816941F4006181612068816921F45C
:1013200080618161206881692A6941EA02218161C5
:1013300024E0206800F086FC2068C16941F00801C3
:10134000C1612068C16921F00401C1612068C169DF
:101350002A69114311E0206800F0A0FC2068C169EF
:1013600041F40061C1612068C16921F48061C161FB
:101370002068C1692A6941EA0221C161002084F81C
:101380003C0070BD10B5040003D094F83D0010B1CE
:1013900007E0012010BD002084F83C00204600F04A
:1013A0001EF8022084F83D00211D206800F0A0FBFB
:1013B000012084F8460084F83E0084F83F0084F859
:1013C000400084F8410084F8420084F8430084F827
:1013D000440084F8450084F83D00002010BD7047AB
:1013E0007047000010B50446022249B104290ED00E
:1013F000082913D094F84100012816D0012010BD0F
:1014000094F83E000128F9D184F83E200FE094F8CA
:101410003F000128F2D184F83F2008E094F8400012
:101420000128EBD184F8402001E084F8412001221A
:10143000206800F093FB0F492068884203D1426C7A
:1014400042F4004242642068884208D0B0F1804FE4
:1014500005D00949884202D00849884204D18168F0
:1014600001F00701062903D0016841F00101016084
:10147000002010BD002C0140000400400008004086
:1014800070470246002041B1042909D008290AD03A
:101490000C2901D11068006C70471068406B7047D0
:1014A0001068806B70471068C06B7047704770475A
:1014B00070470000F8B5026804461068D1685369A7
:1014C00010F00F0F4FF0000553D003F0010601F4A8
:1014D000907737435FD0C20705D0CA0503D5226C89
:1014E00042F001022264420705D5DA0703D0226CDC
:1014F00042F002022264820705D5DA0703D0226C8B
:1015000042F004022264020707D501F020023243B0
:1015100003D0226C42F008022264226C002A34D0EC
:10152000800604D5880602D5204600F064FC2068B9
:101530004069216CC0F38010090700D430B3204605
:1015400000F041FC2068416949061BD5416921F042
:1015500040014161A06BA8B158494163A06BFEF7FF
:10156000BBFE002811D0A06B416B01B0BDE8F0407C
:10157000084783060FD58B060DD52046BDE8F840F9
:1015800000F039BC2046FFF793FFF8BD2046FFF777
:101590008FFF2564F8BD266B2023012E52D1C6068D
:1015A00050D5CE064ED51068506800905069400660
:1015B0002AD5A16B086840680004000CEAD0A68D0B
:1015C0008642E7D9E0858869202818D0D06820F4C1
:1015D0008070D0602068416921F00101416120687C
:1015E000416921F04001416184F83E302563206863
:1015F000C16821F01001C160A06BFEF74AFEA08D0A
:10160000E18D401A81B219E0A08DE18D401A81B2BE
:10161000E08D0028BED00029BCD0D06820F49070A6
:10162000D0602068426922F00102426184F83E30B5
:1016300025632068C26822F01002C2602046FFF7CE
:1016400036FFF8BD05062BD50D0629D594F83D00CB
:101650002128F6D1A068B0F5805F01D12069B0B132
:10166000206A411C2162216800784860E08C401E9D
:101670000004000CE084E4D12068C16821F08001FE
:10168000C1602068C16841F04001C160F8BD206AB6
:101690000088C0F308005060206A801C2062E5E7E3
:1016A0004006F3D54806F1D5D168204621F0400127
:1016B000D16084F83D3000F093F8F8BDB71D000804
:1016C00070B5040004D094F83D00002510B106E088
:1016D000012070BD84F83C50204600F023F82420FF
:1016E00084F83D002068C16821F40051C1602046A3
:1016F00000F0DCFB2068016921F490410161206861
:10170000416921F02A0141612068C16841F400511A
:10171000C1602564202084F83D0084F83E0000204C
:1017200070BD000030B585B000240094019402948F
:10173000039400681B49884232D11B48816941F4F7
:1017400080418161816901F480410491816941F0A6
:10175000080181618069154D00F008000490402067
:101760000090022001900320039069462846FEF76E
:10177000FFFD8020CDE90004694628460294FEF76B
:10178000F7FD0B48416841F0E06141F00401416020
:10179000002201212520FEF74DFF2520FEF73CFF0A
:1017A00005B030BD0038014000100240000C01407F
:1017B0000000014090F83E30202B0ED159B152B1BB
:1017C00090F83C30012B08D0012380F83C300023F6
:1017D000036300F0C7BB01207047022070477047C9
:1017E0007047FEE7F0B585B000242D4800940194C1
:1017F00002940394816941F010018161816901F0D3
:1018000010010491816941F020018161816901F039
:1018100020010491816941F004018161816901F035
:1018200004010491816941F00801816180691D4FC3
:1018300000F0080040F21E25049000222946384698
:10184000FEF786FE4FF46040CDE900046946164875
:101850000294FEF78DFD0095022601250396CDE941
:10186000015469463846FEF783FD2020CDE9000487
:10187000694638460294FEF77BFD40F20140CDE90F
:1018800000040A4F694638460294FEF771FD00963F
:1018900069463846CDE90145FEF76AFD05B0F0BD61
:1018A000001002400008014000100140000C0140FF
:1018B00010B586B00024194805940494009401944E
:1018C00002941549039401604721C0E901144FF6C1
:1018D000FF71C0E9031444618461FFF738FB08B16C
:1018E00072B6FEE7049404A90C480594FFF766F964
:1018F00008B172B6FEE70120CDE900400294002253
:10190000694606480394FFF79BFA002801D072B697
:10191000FEE706B010BD0000002C014030000020A2
:1019200010B58EB000240794089409940A940B947F
:101930001C2168460C94FEF747FC1E484FF080417E
:10194000016040F29F51C0E901144FF47A71C0E97F
:1019500003148461FFF766F908B172B6FEE74FF42D
:101960008050079007A91348FFF7A8F908B172B68D
:10197000FEE71048FFF706FD08B172B6FEE70B94CC
:101980000BA90C480C94FFF719F908B172B6FEE7E1
:101990006020CDE9000402940022694605480494C1
:1019A000FFF78DFC08B172B6FEE70248FFF754FC62
:1019B0000EB010BD7800002010B58EB00024079442
:1019C000089409940A940B941C2168460C94FEF721
:1019D000FBFB22482049016043F63F01C0E90114A6
:1019E0006321C0E903148461FFF71CF908B172B6E2
:1019F000FEE74FF48050079007A91848FFF75EF9FB
:101A000008B172B6FEE71548FFF7BCFC08B172B624
:101A1000FEE70B940BA911480C94FFF7CFF808B11F
:101A200072B6FEE76020CDE9000402940022694608
:101A30000A480494FFF743FC08B172B6FEE704229B
:101A400069460648FFF73BFC08B172B6FEE703485B
:101A5000FFF702FC0EB010BD00040040C0000020E3
:101A6000FEE70000052202490248FFF7A3BE00007E
:101A70001800002008010020FEE770477047FEF7BD
:101A800073BD30B58FB028216846FEF79DFB142149
:101A90000AA8FEF799FB01210804CDE900100024F3
:101AA000029402250491CDE907504FF4E01009900B
:101AB0006846FEF7DDFE08B172B6FEE70F20CDE9FD
:101AC0000A054FF48060CDE90C4002210AA80E946B
:101AD000FEF7E2FD002801D072B6FEE70FB030BD80
:101AE000704700000148FFF703BB000030000020F2
:101AF000F0B50268164B174C174D4FF080479842CF
:101B000005D0B84203D0A04201D0A84203D122F0B0
:101B100070064A683243984205D0B84203D0A042CA
:101B200001D0A84203D122F44074CA6822434C6910
:101B300022F08002224302608A68C2620A688262DE
:101B4000984201D10969016301214161F0BD0000A2
:101B5000002C0140000400400008004010B501F0D6
:101B60001F030121046A99408C430462016A9A4070
:101B70001143016210BD10B5846842EA032224F4C7
:101B80007F440A432243826010BD826822F07002C3
:101B90000A4342F0070181607047000030B5026AD5
:101BA00022F001020262026A4368846924F073052C
:101BB0000C682C4322F002058A682A430A4DA84289
:101BC0000BD122F00805CA6823F440732A434D69FB
:101BD00022F004021D438B692B43436084614968F2
:101BE0004163026230BD0000002C014030B5026A42
:101BF00022F010020262026A436884690D6824F4CC
:101C0000E64444EA05248D6822F0200242EA0512E7
:101C10000B4DA8420ED1CD6822F0800242EA051297
:101C20004D6923F4406343EA85038D6922F0400245
:101C300043EA85034360846149688163026230BD81
:101C4000002C014030B5026A22F480720262036AFD
:101C50004268C46923F4007324F073050C682C43B4
:101C60008D6843EA05230C4DA8420ED1CD6823F4BC
:101C7000006343EA05234D6922F4405242EA05120B
:101C80008D6923F4806342EA05124260C4614968A9
:101C9000C163036230BD0000002C014030B5026A10
:101CA00022F480520262046A4268C3690D6823F418
:101CB000E64343EA05238D6824F4005444EA0534DE
:101CC000064DA84204D14D6922F4804242EA8512B1
:101CD0004260C36149680164046230BD002C014068
:101CE00010B5036A046A24F001040462846924F0D4
:101CF000F00444EA021423F00A020A4384610262F7
:101D000010BD000070B5046A24F001040462846907
:101D1000056A0F4EB04208D0B0F1804F05D00D4E8D
:101D2000B04202D00C4EB04203D124F0030414435D
:101D300001E044F001041A0724F0F00444EA1262BE
:101D400025F00A0301F00A0119438261016270BDA6
:101D5000002C0140000400400008004010B5036A58
:101D600023F0100303628369046A23F4704343EA97
:101D7000023224F0A00343EA01118261016210BD26
:101D800030B5046A24F0100404628469056A24F4FE
:101D9000407444EA022222F470444FF6FF7202EAD1
:101DA00003322243A02425F0A00304EA01111943C1
:101DB0008261016230BD10B5406A0021C185C184D5
:101DC000FFF776FB10BD0168CA6822F49072CA6002
:101DD00001684A6922F001024A61016B012904D1BC
:101DE0000168CA6822F01002CA60202180F83E1003
:101DF00000210163704708B590F83E10222901D0F8
:101E0000022008BD82684FF480539A4201D10169D3
:101E100021B1816A9A421BD04AB10AE00268816A04
:101E20005268C2F308020A80816A891C08E00269CC
:101E300072B10268526802F07F020A70816A491C1E
:101E40008162C18D491E0904090CC18503D019E0C6
:101E500002685268F1E70168CA6822F02002CA608D
:101E60000168CA6822F48072CA6001684A6922F077
:101E700001024A61202180F83E10016B012903D044
:101E8000FFF7ADFC002008BD002101630168CA68AE
:101E900022F01002CA6001680A68D20602D50A68F8
:101EA00049680091818DFFF702FBEBE770B50446AE
:101EB00000680169E26821F4405111430161216920
:101EC000A0680843616908432168CA6841F20C634D
:101ED0009A430243CA6020684169A26921F44071B3
:101EE000114341611E492068884202D1FEF77AFC05
:101EF00001E0FEF767FC00EBC00101EB0012606837
:101F000064218000B2FBF0F3B3FBF1F36FF018062D
:101F10007343B2FBF0F5B2FBF0F605EB8305322319
:101F200003EB0515B5FBF1F5B6FBF1F605F0F00591
:101F300005EB0615B2FBF0F6B2FBF0F0B0FBF1F0EA
:101F40006FF01802504306EB800003EB0010B0FB6B
:101F5000F1F0216800F00F002844886070BD000097
:101F60000038014081628285C285002101642222FD
:101F700080F83E2080F83C100168CA6842F4807204
:101F8000CA6001684A6942F001024A610068C1689A
:101F900041F02001C1600020704700000148FFF7B8
:101FA00089BA000008010020FEE70907090E002891
:101FB00004DB00F1E02080F80014704700F00F000F
:101FC00000F1E02080F8141D70470000FEF7D4FAFD
:101FD000FFF757FDFFF706FCFFF76AFCFFF7A0FCD1
:101FE000FFF7EAFC164815490C2201604FF4165120
:101FF000416000218160C160C0E904128161C1615A
:10200000FFF75EFB08B172B6FEE70D48002190387D
:10201000FFF7E8F90A4800214838FFF7E3F90848D4
:1020200004214838FFF7DEF905480021D838FEF7CB
:10203000EFFF00BFFFF716FDFCE70000003801408E
:10204000080100204FEA1153A3F58063D3F11E036A
:10205000A8BFD3F1200C08DB4FF0004242EAC122B6
:1020600052EA505232FA03F0704709420BD4102B57
:10207000C4BF0020704703F5787CBCF1FF3F05D05A
:102080004FF0FF3070474FF00000704770B500F020
:10209000C3F800BF4992248000207047F0E7B0FAEF
:1020A00080F310FA03F10AD0C3F11D0303F5806336
:1020B0004FEA41504FEA035202EBD12170474FF0F3
:1020C00000007047DFF848C170B51CEA111E1EBF42
:1020D0001CEA13159EEA0C0F95EA0C0F00F06F80B6
:1020E00081EA030423EA4C134EEAD47E21EA4C1120
:1020F00041F4801143F48013AE44A1FB024CA0FBD9
:102100000365AEF17F7E361955EB0C05A1FB034C40
:102110004CF10003A0FB021C16EB0C06654153F1C9
:102120000003094218BF46F0010613F4007F0BD1EB
:102130004FEA03314FEA0530340341EA155140EAD2
:1021400016506FF003020AE04FEAC3214FEAC520A0
:10215000F40241EA555140EA56506FF0020202EB98
:102160002E4201EB025585EACE710AD05FEA440C9B
:1021700018BF24F0004450F1000041F1000120EAB2
:10218000D47040F2FE7C624500D270BDA84214BFFC
:102190004FF080444FF04044002E08BF0024BEF1B1
:1021A000806FA8BFA1F1C041BDE8704080F282807D
:1021B0004FF0000001F1C04101F0004170479EEA7C
:1021C0000C0F0CEA131518BF95EA0C0F06D04FF050
:1021D000000081EA030E0EF0004170BD00F01CF813
:1021E0008900013E00F007B800F009B84FEA430C3F
:1021F0005FEA5C5C08D081EA030100F05BB84FEA5B
:10220000410C5FEA5C5CF6D14FF000000149704779
:102210000000FF070000F87F0EF1020E2EF0030E03
:102220005EF8046B364205D4012A43EB030515F52D
:10223000001F12D8012841EB010C1CF5001F0CD81F
:102240000ED14FEAD17C15F5001F0CEB4C0C0CF1B4
:10225000020C08BF4CEBD37C04E04FF0080C01E00B
:102260004FEAD37C0CEB4C0526FA05F606F0070680
:10227000B6F1040C06D20EEB860CBDE870404CF0B3
:10228000010C6047DFE80CF0090B02024FF000413F
:102290004FF00000A1F5002170BD1946104601283D
:1022A00051EB010418BFD4F5001484BF002001F0E5
:1022B000004170BD0808A0F500114FEA31017047D8
:1022C00000000000000000000102030406070809E6
:1022D0000000000001020304F822000800000020B2
:1022E00030000000280100082823000830000020EA
:1022F000800700004401000800000000000000000A
:1023000000000000000000000000000000000000CD
:1023100000000000000000000100000010000000AC
:08232000000000000024F4009D
:04000005080000ED02
:00000001FF
